{
  "contractName": "Demo",
  "abi": [
    {
      "anonymous": false,
      "inputs": [
        {
          "indexed": false,
          "internalType": "string",
          "name": "message",
          "type": "string"
        }
      ],
      "name": "Echo",
      "type": "event"
    },
    {
      "inputs": [
        {
          "internalType": "string",
          "name": "message",
          "type": "string"
        }
      ],
      "name": "echo",
      "outputs": [],
      "stateMutability": "nonpayable",
      "type": "function"
    }
  ],
  "bytecode": "0x608060405234801561001057600080fd5b50610154806100206000396000f3fe608060405234801561001057600080fd5b506004361061002b5760003560e01c8063f15da72914610030575b600080fd5b61004361003e366004610082565b610045565b005b7fdb84d7c006c4de68f9c0bd50b8b81ed31f29ebeec325c872d36445c6565d757c82826040516100769291906100ef565b60405180910390a15050565b60008060208385031215610094578182fd5b823567ffffffffffffffff808211156100ab578384fd5b818501915085601f8301126100be578384fd5b8135818111156100cc578485fd5b8660208285010111156100dd578485fd5b60209290920196919550909350505050565b60006020825282602083015282846040840137818301604090810191909152601f909201601f1916010191905056fea26469706673582212208f385265b43327746b48e318b7cb0536dfb418f6f785968b313a21e892221ceb64736f6c63430008000033",
  "immutableReferences": {},
  "source": "// SPDX-License-Identifier: UNLICENSED\npragma solidity >=0.5.8;\n\ncontract Demo {\n    event Echo(string message);\n\n    function echo(string calldata message) external {\n        emit Echo(message);\n    }\n}",
  "sourcePath": "/Users/lorenzocereser/Desktop/blockchain_project/blockchain-project-smart-contracts/contracts/Demo.sol",
  "compiler": {
    "name": "solc",
    "version": "0.8.0+commit.c7dfd78e.Emscripten.clang"
  },
  "schemaVersion": "3.4.15",
  "updatedAt": "2023-08-20T09:52:01.492Z",
  "networkType": "ethereum",
  "devdoc": {
    "kind": "dev",
    "methods": {},
    "version": 1
  },
  "userdoc": {
    "kind": "user",
    "methods": {},
    "version": 1
  }
}